{
  "contractName": "MyTokenSale",
  "abi": [
    {
      "inputs": [
        {
          "internalType": "uint256",
          "name": "rate",
          "type": "uint256"
        },
        {
          "internalType": "address payable",
          "name": "wallet",
          "type": "address"
        },
        {
          "internalType": "contract IERC20",
          "name": "token",
          "type": "address"
        },
        {
          "internalType": "contract KycContract",
          "name": "_Kyc",
          "type": "address"
        }
      ],
      "stateMutability": "nonpayable",
      "type": "constructor"
    },
    {
      "anonymous": false,
      "inputs": [
        {
          "indexed": true,
          "internalType": "address",
          "name": "purchaser",
          "type": "address"
        },
        {
          "indexed": true,
          "internalType": "address",
          "name": "beneficiary",
          "type": "address"
        },
        {
          "indexed": false,
          "internalType": "uint256",
          "name": "value",
          "type": "uint256"
        },
        {
          "indexed": false,
          "internalType": "uint256",
          "name": "amount",
          "type": "uint256"
        }
      ],
      "name": "TokensPurchased",
      "type": "event"
    },
    {
      "inputs": [
        {
          "internalType": "address",
          "name": "beneficiary",
          "type": "address"
        }
      ],
      "name": "buyTokens",
      "outputs": [],
      "stateMutability": "payable",
      "type": "function"
    },
    {
      "inputs": [],
      "name": "rate",
      "outputs": [
        {
          "internalType": "uint256",
          "name": "",
          "type": "uint256"
        }
      ],
      "stateMutability": "view",
      "type": "function"
    },
    {
      "inputs": [],
      "name": "token",
      "outputs": [
        {
          "internalType": "contract IERC20",
          "name": "",
          "type": "address"
        }
      ],
      "stateMutability": "view",
      "type": "function"
    },
    {
      "inputs": [],
      "name": "wallet",
      "outputs": [
        {
          "internalType": "address payable",
          "name": "",
          "type": "address"
        }
      ],
      "stateMutability": "view",
      "type": "function"
    },
    {
      "inputs": [],
      "name": "weiRaised",
      "outputs": [
        {
          "internalType": "uint256",
          "name": "",
          "type": "uint256"
        }
      ],
      "stateMutability": "view",
      "type": "function"
    },
    {
      "stateMutability": "payable",
      "type": "receive"
    }
  ],
  "bytecode": "0x608060405234801561001057600080fd5b50604051610f33380380610f338339818101604052608081101561003357600080fd5b810190808051906020019092919080519060200190929190805190602001909291908051906020019092919050505083838360016000806101000a81548160ff021916908315150217905550600083116100f5576040517f08c379a00000000000000000000000000000000000000000000000000000000081526004018080602001828103825260148152602001807f43726f776473616c653a2072617465206973203000000000000000000000000081525060200191505060405180910390fd5b600073ffffffffffffffffffffffffffffffffffffffff168273ffffffffffffffffffffffffffffffffffffffff16141561017b576040517f08c379a0000000000000000000000000000000000000000000000000000000008152600401808060200182810382526025815260200180610f0e6025913960400191505060405180910390fd5b600073ffffffffffffffffffffffffffffffffffffffff168173ffffffffffffffffffffffffffffffffffffffff161415610201576040517f08c379a0000000000000000000000000000000000000000000000000000000008152600401808060200182810382526024815260200180610eea6024913960400191505060405180910390fd5b8260028190555081600160006101000a81548173ffffffffffffffffffffffffffffffffffffffff021916908373ffffffffffffffffffffffffffffffffffffffff16021790555080600060016101000a81548173ffffffffffffffffffffffffffffffffffffffff021916908373ffffffffffffffffffffffffffffffffffffffff16021790555050505080600460006101000a81548173ffffffffffffffffffffffffffffffffffffffff021916908373ffffffffffffffffffffffffffffffffffffffff16021790555050505050610c09806102e16000396000f3fe60806040526004361061004e5760003560e01c80632c4e722e1461006a5780634042b66f14610095578063521eb273146100c0578063ec8ac4d814610117578063fc0c546a1461015b57610065565b366100655761006361005e6101b2565b6101ba565b005b600080fd5b34801561007657600080fd5b5061007f610345565b6040518082815260200191505060405180910390f35b3480156100a157600080fd5b506100aa61034f565b6040518082815260200191505060405180910390f35b3480156100cc57600080fd5b506100d5610359565b604051808273ffffffffffffffffffffffffffffffffffffffff1673ffffffffffffffffffffffffffffffffffffffff16815260200191505060405180910390f35b6101596004803603602081101561012d57600080fd5b81019080803573ffffffffffffffffffffffffffffffffffffffff1690602001909291905050506101ba565b005b34801561016757600080fd5b50610170610383565b604051808273ffffffffffffffffffffffffffffffffffffffff1673ffffffffffffffffffffffffffffffffffffffff16815260200191505060405180910390f35b600033905090565b6000809054906101000a900460ff1661023b576040517f08c379a000000000000000000000000000000000000000000000000000000000815260040180806020018281038252601f8152602001807f5265656e7472616e637947756172643a207265656e7472616e742063616c6c0081525060200191505060405180910390fd5b60008060006101000a81548160ff021916908315150217905550600034905061026482826103ac565b600061026f826104e9565b90506102868260035461050790919063ffffffff16565b600381905550610296838261058f565b8273ffffffffffffffffffffffffffffffffffffffff166102b56101b2565b73ffffffffffffffffffffffffffffffffffffffff167f6faf93231a456e552dbc9961f58d9713ee4f2e69d15f1975b050ef0911053a7b8484604051808381526020018281526020019250505060405180910390a3610314838361059d565b61031c6105a1565b610326838361060c565b505060016000806101000a81548160ff02191690831515021790555050565b6000600254905090565b6000600354905090565b6000600160009054906101000a900473ffffffffffffffffffffffffffffffffffffffff16905090565b60008060019054906101000a900473ffffffffffffffffffffffffffffffffffffffff16905090565b6103b68282610610565b600460009054906101000a900473ffffffffffffffffffffffffffffffffffffffff1673ffffffffffffffffffffffffffffffffffffffff16632eb10fde336040518263ffffffff1660e01b8152600401808273ffffffffffffffffffffffffffffffffffffffff1673ffffffffffffffffffffffffffffffffffffffff16815260200191505060206040518083038186803b15801561045557600080fd5b505afa158015610469573d6000803e3d6000fd5b505050506040513d602081101561047f57600080fd5b81019080805190602001909291905050506104e5576040517f08c379a0000000000000000000000000000000000000000000000000000000008152600401808060200182810382526028815260200180610b586028913960400191505060405180910390fd5b5050565b60006105006002548361071190919063ffffffff16565b9050919050565b600080828401905083811015610585576040517f08c379a000000000000000000000000000000000000000000000000000000000815260040180806020018281038252601b8152602001807f536166654d6174683a206164646974696f6e206f766572666c6f77000000000081525060200191505060405180910390fd5b8091505092915050565b6105998282610797565b5050565b5050565b600160009054906101000a900473ffffffffffffffffffffffffffffffffffffffff1673ffffffffffffffffffffffffffffffffffffffff166108fc349081150290604051600060405180830381858888f19350505050158015610609573d6000803e3d6000fd5b50565b5050565b600073ffffffffffffffffffffffffffffffffffffffff168273ffffffffffffffffffffffffffffffffffffffff161415610696576040517f08c379a000000000000000000000000000000000000000000000000000000000815260040180806020018281038252602a815260200180610b80602a913960400191505060405180910390fd5b600081141561070d576040517f08c379a00000000000000000000000000000000000000000000000000000000081526004018080602001828103825260198152602001807f43726f776473616c653a20776569416d6f756e7420697320300000000000000081525060200191505060405180910390fd5b5050565b6000808314156107245760009050610791565b600082840290508284828161073557fe5b041461078c576040517f08c379a0000000000000000000000000000000000000000000000000000000008152600401808060200182810382526021815260200180610b376021913960400191505060405180910390fd5b809150505b92915050565b6107e48282600060019054906101000a900473ffffffffffffffffffffffffffffffffffffffff1673ffffffffffffffffffffffffffffffffffffffff166107e89092919063ffffffff16565b5050565b61089b8363a9059cbb60e01b8484604051602401808373ffffffffffffffffffffffffffffffffffffffff1673ffffffffffffffffffffffffffffffffffffffff16815260200182815260200192505050604051602081830303815290604052907bffffffffffffffffffffffffffffffffffffffffffffffffffffffff19166020820180517bffffffffffffffffffffffffffffffffffffffffffffffffffffffff83818316178352505050506108a0565b505050565b6108bf8273ffffffffffffffffffffffffffffffffffffffff16610aeb565b610931576040517f08c379a000000000000000000000000000000000000000000000000000000000815260040180806020018281038252601f8152602001807f5361666545524332303a2063616c6c20746f206e6f6e2d636f6e74726163740081525060200191505060405180910390fd5b600060608373ffffffffffffffffffffffffffffffffffffffff16836040518082805190602001908083835b60208310610980578051825260208201915060208101905060208303925061095d565b6001836020036101000a0380198251168184511680821785525050505050509050019150506000604051808303816000865af19150503d80600081146109e2576040519150601f19603f3d011682016040523d82523d6000602084013e6109e7565b606091505b509150915081610a5f576040517f08c379a00000000000000000000000000000000000000000000000000000000081526004018080602001828103825260208152602001807f5361666545524332303a206c6f772d6c6576656c2063616c6c206661696c656481525060200191505060405180910390fd5b600081511115610ae557808060200190516020811015610a7e57600080fd5b8101908080519060200190929190505050610ae4576040517f08c379a000000000000000000000000000000000000000000000000000000000815260040180806020018281038252602a815260200180610baa602a913960400191505060405180910390fd5b5b50505050565b60008060007fc5d2460186f7233c927e7db2dcc703c0e500b653ca82273b7bfad8045d85a47060001b9050833f9150808214158015610b2d57506000801b8214155b9250505091905056fe536166654d6174683a206d756c7469706c69636174696f6e206f766572666c6f774b7963206e6f7420636f6d706c65746564202c206e6f7420707572636861736520616c6c6f77656443726f776473616c653a2062656e656669636961727920697320746865207a65726f20616464726573735361666545524332303a204552433230206f7065726174696f6e20646964206e6f742073756363656564a26469706673582212204a888e4b1a3314c9483bec41abb32370ee6fff5bb91194d3ae99b3c010f3ed6464736f6c6343000602003343726f776473616c653a20746f6b656e20697320746865207a65726f206164647265737343726f776473616c653a2077616c6c657420697320746865207a65726f2061646472657373",
  "source": "pragma solidity ^0.6.2;\r\n\r\nimport \"./CrowdSale.sol\";\r\nimport \"./KycContract.sol\";\r\n\r\ncontract MyTokenSale is Crowdsale {\r\n\r\n  KycContract Kyc;\r\n    constructor(\r\n        uint256 rate,    // rate in TKNbits\r\n        address payable wallet,\r\n        IERC20 token,\r\n        KycContract _Kyc\r\n    )\r\n        Crowdsale(rate, wallet, token)\r\n        public\r\n    {\r\n      Kyc = _Kyc;\r\n    }\r\n    function _preValidatePurchase(address beneficiary, uint256 weiAmount) internal view override{\r\n      super._preValidatePurchase(beneficiary, weiAmount);\r\n      require(Kyc.KycCompleted(msg.sender),\"Kyc not completed , not purchase allowed\");\r\n    }\r\n}\r\n\r\n\r\n\r\n//import \"./Crowdsale.sol\";\r\n//import \"../../token/ERC20/MintableToken.sol\";\r\n\r\n\r\n/**\r\n * @title MintedCrowdsale\r\n * @dev Extension of Crowdsale contract whose tokens are minted in each purchase.\r\n * Token ownership should be transferred to MintedCrowdsale for minting.\r\n */\r\n/*contract MyTokenSale is Crowdsale {\r\n\r\n  /**\r\n   * @dev Overrides delivery by minting tokens upon purchase.\r\n   * @param _beneficiary Token purchaser\r\n   * @param _tokenAmount Number of tokens to be minted\r\n   */\r\n  /*function _deliverTokens(\r\n    address _beneficiary,\r\n    uint256 _tokenAmount\r\n  )\r\n    internal\r\n  {\r\n    require(MintableToken(token).mint(_beneficiary, _tokenAmount));\r\n  }\r\n}*/",
  "sourcePath": "C:\\Users\\DELL\\Desktop\\Ethereum\\blockchain\\contracts\\MyTokenSale.sol",
  "compiler": {
    "name": "solc",
    "version": "0.6.2+commit.bacdbe57.Emscripten.clang"
  },
  "schemaVersion": "3.4.7",
  "updatedAt": "2022-05-18T12:22:00.087Z",
  "devdoc": {
    "methods": {
      "buyTokens(address)": {
        "details": "low level token purchase ***DO NOT OVERRIDE*** This function has a non-reentrancy guard, so it shouldn't be called by another `nonReentrant` function.",
        "params": {
          "beneficiary": "Recipient of the token purchase"
        }
      }
    }
  },
  "userdoc": {
    "methods": {}
  }
}